{
  "_format": "hh-sol-artifact-1",
  "contractName": "JapanPayShop",
  "sourceName": "contracts/JapanPayShop.sol",
  "abi": [
    {
      "inputs": [],
      "stateMutability": "nonpayable",
      "type": "constructor"
    },
    {
      "anonymous": false,
      "inputs": [
        {
          "indexed": true,
          "internalType": "address",
          "name": "user",
          "type": "address"
        },
        {
          "indexed": false,
          "internalType": "string",
          "name": "id",
          "type": "string"
        },
        {
          "indexed": false,
          "internalType": "uint256",
          "name": "amount",
          "type": "uint256"
        },
        {
          "indexed": false,
          "internalType": "uint256",
          "name": "amountToPay",
          "type": "uint256"
        }
      ],
      "name": "PayEvent",
      "type": "event"
    },
    {
      "inputs": [],
      "name": "MIN_PAY_AMOUNT",
      "outputs": [
        {
          "internalType": "uint256",
          "name": "",
          "type": "uint256"
        }
      ],
      "stateMutability": "view",
      "type": "function"
    },
    {
      "inputs": [],
      "name": "MIN_TAX_FREE_AMOUNT",
      "outputs": [
        {
          "internalType": "uint256",
          "name": "",
          "type": "uint256"
        }
      ],
      "stateMutability": "view",
      "type": "function"
    },
    {
      "inputs": [
        {
          "internalType": "string",
          "name": "id",
          "type": "string"
        },
        {
          "internalType": "uint256",
          "name": "amount",
          "type": "uint256"
        }
      ],
      "name": "pay",
      "outputs": [],
      "stateMutability": "nonpayable",
      "type": "function"
    },
    {
      "inputs": [
        {
          "internalType": "address",
          "name": "",
          "type": "address"
        },
        {
          "internalType": "uint256",
          "name": "",
          "type": "uint256"
        }
      ],
      "name": "payLogs",
      "outputs": [
        {
          "internalType": "string",
          "name": "id",
          "type": "string"
        },
        {
          "internalType": "uint256",
          "name": "amount",
          "type": "uint256"
        },
        {
          "internalType": "uint256",
          "name": "amountToPay",
          "type": "uint256"
        }
      ],
      "stateMutability": "view",
      "type": "function"
    },
    {
      "inputs": [
        {
          "internalType": "address",
          "name": "token",
          "type": "address"
        }
      ],
      "name": "registerToken",
      "outputs": [],
      "stateMutability": "nonpayable",
      "type": "function"
    }
  ],
  "bytecode": "0x608060405234801561001057600080fd5b5033600160006101000a81548173ffffffffffffffffffffffffffffffffffffffff021916908373ffffffffffffffffffffffffffffffffffffffff160217905550610f88806100616000396000f3fe608060405234801561001057600080fd5b50600436106100575760003560e01c806309824a801461005c5780635dbca07114610078578063791c4ced146100aa578063901c5953146100c8578063fd527178146100e4575b600080fd5b6100766004803603810190610071919061063e565b610102565b005b610092600480360381019061008d91906106a1565b6101d5565b6040516100a193929190610780565b60405180910390f35b6100b26102a4565b6040516100bf91906107be565b60405180910390f35b6100e260048036038101906100dd919061083e565b6102aa565b005b6100ec6105d1565b6040516100f991906107be565b60405180910390f35b600160009054906101000a900473ffffffffffffffffffffffffffffffffffffffff1673ffffffffffffffffffffffffffffffffffffffff163373ffffffffffffffffffffffffffffffffffffffff1614610192576040517f08c379a0000000000000000000000000000000000000000000000000000000008152600401610189906108ea565b60405180910390fd5b806000806101000a81548173ffffffffffffffffffffffffffffffffffffffff021916908373ffffffffffffffffffffffffffffffffffffffff16021790555050565b600260205281600052604060002081815481106101f157600080fd5b90600052602060002090600302016000915091505080600001805461021590610939565b80601f016020809104026020016040519081016040528092919081815260200182805461024190610939565b801561028e5780601f106102635761010080835404028352916020019161028e565b820191906000526020600020905b81548152906001019060200180831161027157829003601f168201915b5050505050908060010154908060020154905083565b61138881565b606481116102ed576040517f08c379a00000000000000000000000000000000000000000000000000000000081526004016102e4906109b6565b60405180910390fd5b60008190506000606c6064846103039190610a05565b61030d9190610a76565b905061138883111561031d578091505b60008060009054906101000a900473ffffffffffffffffffffffffffffffffffffffff169050838173ffffffffffffffffffffffffffffffffffffffff1663dd62ed3e33306040518363ffffffff1660e01b815260040161037f929190610ab6565b602060405180830381865afa15801561039c573d6000803e3d6000fd5b505050506040513d601f19601f820116820180604052508101906103c09190610af4565b1015610401576040517f08c379a00000000000000000000000000000000000000000000000000000000081526004016103f890610b6d565b60405180910390fd5b8073ffffffffffffffffffffffffffffffffffffffff166323b872dd3330866040518463ffffffff1660e01b815260040161043e93929190610b8d565b6020604051808303816000875af115801561045d573d6000803e3d6000fd5b505050506040513d601f19601f820116820180604052508101906104819190610bfc565b50600260003373ffffffffffffffffffffffffffffffffffffffff1673ffffffffffffffffffffffffffffffffffffffff168152602001908152602001600020604051806060016040528088888080601f016020809104026020016040519081016040528093929190818152602001838380828437600081840152601f19601f820116905080830192505050505050508152602001868152602001858152509080600181540180825580915050600190039060005260206000209060030201600090919091909150600082015181600001908161055e9190610e04565b50602082015181600101556040820151816002015550503373ffffffffffffffffffffffffffffffffffffffff167fed9100fd7adb878015d88d5ad98753d7d5f7c06506d4ffea0c3c8e535a09c31f878787876040516105c19493929190610f12565b60405180910390a2505050505050565b606481565b600080fd5b600080fd5b600073ffffffffffffffffffffffffffffffffffffffff82169050919050565b600061060b826105e0565b9050919050565b61061b81610600565b811461062657600080fd5b50565b60008135905061063881610612565b92915050565b600060208284031215610654576106536105d6565b5b600061066284828501610629565b91505092915050565b6000819050919050565b61067e8161066b565b811461068957600080fd5b50565b60008135905061069b81610675565b92915050565b600080604083850312156106b8576106b76105d6565b5b60006106c685828601610629565b92505060206106d78582860161068c565b9150509250929050565b600081519050919050565b600082825260208201905092915050565b60005b8381101561071b578082015181840152602081019050610700565b60008484015250505050565b6000601f19601f8301169050919050565b6000610743826106e1565b61074d81856106ec565b935061075d8185602086016106fd565b61076681610727565b840191505092915050565b61077a8161066b565b82525050565b6000606082019050818103600083015261079a8186610738565b90506107a96020830185610771565b6107b66040830184610771565b949350505050565b60006020820190506107d36000830184610771565b92915050565b600080fd5b600080fd5b600080fd5b60008083601f8401126107fe576107fd6107d9565b5b8235905067ffffffffffffffff81111561081b5761081a6107de565b5b602083019150836001820283011115610837576108366107e3565b5b9250929050565b600080600060408486031215610857576108566105d6565b5b600084013567ffffffffffffffff811115610875576108746105db565b5b610881868287016107e8565b935093505060206108948682870161068c565b9150509250925092565b7f6e6f74206f776e65720000000000000000000000000000000000000000000000600082015250565b60006108d46009836106ec565b91506108df8261089e565b602082019050919050565b60006020820190508181036000830152610903816108c7565b9050919050565b7f4e487b7100000000000000000000000000000000000000000000000000000000600052602260045260246000fd5b6000600282049050600182168061095157607f821691505b6020821081036109645761096361090a565b5b50919050565b7f7061796d656e742069732062656c6f77206d696e20616d6f756e740000000000600082015250565b60006109a0601b836106ec565b91506109ab8261096a565b602082019050919050565b600060208201905081810360008301526109cf81610993565b9050919050565b7f4e487b7100000000000000000000000000000000000000000000000000000000600052601160045260246000fd5b6000610a108261066b565b9150610a1b8361066b565b9250828202610a298161066b565b91508282048414831517610a4057610a3f6109d6565b5b5092915050565b7f4e487b7100000000000000000000000000000000000000000000000000000000600052601260045260246000fd5b6000610a818261066b565b9150610a8c8361066b565b925082610a9c57610a9b610a47565b5b828204905092915050565b610ab081610600565b82525050565b6000604082019050610acb6000830185610aa7565b610ad86020830184610aa7565b9392505050565b600081519050610aee81610675565b92915050565b600060208284031215610b0a57610b096105d6565b5b6000610b1884828501610adf565b91505092915050565b7f546f6b656e20616c6c6f77616e636520746f6f206c6f77000000000000000000600082015250565b6000610b576017836106ec565b9150610b6282610b21565b602082019050919050565b60006020820190508181036000830152610b8681610b4a565b9050919050565b6000606082019050610ba26000830186610aa7565b610baf6020830185610aa7565b610bbc6040830184610771565b949350505050565b60008115159050919050565b610bd981610bc4565b8114610be457600080fd5b50565b600081519050610bf681610bd0565b92915050565b600060208284031215610c1257610c116105d6565b5b6000610c2084828501610be7565b91505092915050565b7f4e487b7100000000000000000000000000000000000000000000000000000000600052604160045260246000fd5b60008190508160005260206000209050919050565b60006020601f8301049050919050565b600082821b905092915050565b600060088302610cba7fffffffffffffffffffffffffffffffffffffffffffffffffffffffffffffffff82610c7d565b610cc48683610c7d565b95508019841693508086168417925050509392505050565b6000819050919050565b6000610d01610cfc610cf78461066b565b610cdc565b61066b565b9050919050565b6000819050919050565b610d1b83610ce6565b610d2f610d2782610d08565b848454610c8a565b825550505050565b600090565b610d44610d37565b610d4f818484610d12565b505050565b5b81811015610d7357610d68600082610d3c565b600181019050610d55565b5050565b601f821115610db857610d8981610c58565b610d9284610c6d565b81016020851015610da1578190505b610db5610dad85610c6d565b830182610d54565b50505b505050565b600082821c905092915050565b6000610ddb60001984600802610dbd565b1980831691505092915050565b6000610df48383610dca565b9150826002028217905092915050565b610e0d826106e1565b67ffffffffffffffff811115610e2657610e25610c29565b5b610e308254610939565b610e3b828285610d77565b600060209050601f831160018114610e6e5760008415610e5c578287015190505b610e668582610de8565b865550610ece565b601f198416610e7c86610c58565b60005b82811015610ea457848901518255600182019150602085019450602081019050610e7f565b86831015610ec15784890151610ebd601f891682610dca565b8355505b6001600288020188555050505b505050505050565b82818337600083830152505050565b6000610ef183856106ec565b9350610efe838584610ed6565b610f0783610727565b840190509392505050565b60006060820190508181036000830152610f2d818688610ee5565b9050610f3c6020830185610771565b610f496040830184610771565b9594505050505056fea26469706673582212200fd4b105398e3cafb7ff7442ed0bd84cb82b5c2bdb0a2a86dd6a41103e3b473b64736f6c63430008180033",
  "linkReferences": {},
  "deployedLinkReferences": {}
}