{
  "_format": "hh-sol-artifact-1",
  "contractName": "JapanPayShop",
  "sourceName": "contracts/JapanPayShop.sol",
  "abi": [
    {
      "inputs": [],
      "stateMutability": "nonpayable",
      "type": "constructor"
    },
    {
      "anonymous": false,
      "inputs": [
        {
          "indexed": true,
          "internalType": "address",
          "name": "user",
          "type": "address"
        },
        {
          "indexed": false,
          "internalType": "string",
          "name": "id",
          "type": "string"
        },
        {
          "indexed": false,
          "internalType": "uint256",
          "name": "amount",
          "type": "uint256"
        },
        {
          "indexed": false,
          "internalType": "uint256",
          "name": "amountToPay",
          "type": "uint256"
        }
      ],
      "name": "PayEvent",
      "type": "event"
    },
    {
      "inputs": [],
      "name": "MIN_PAY_AMOUNT",
      "outputs": [
        {
          "internalType": "uint256",
          "name": "",
          "type": "uint256"
        }
      ],
      "stateMutability": "view",
      "type": "function"
    },
    {
      "inputs": [],
      "name": "MIN_TAX_FREE_AMOUNT",
      "outputs": [
        {
          "internalType": "uint256",
          "name": "",
          "type": "uint256"
        }
      ],
      "stateMutability": "view",
      "type": "function"
    },
    {
      "inputs": [
        {
          "internalType": "address",
          "name": "user",
          "type": "address"
        }
      ],
      "name": "getAllPayLogs",
      "outputs": [
        {
          "components": [
            {
              "internalType": "string",
              "name": "id",
              "type": "string"
            },
            {
              "internalType": "uint256",
              "name": "amount",
              "type": "uint256"
            },
            {
              "internalType": "uint256",
              "name": "amountToPay",
              "type": "uint256"
            },
            {
              "internalType": "uint256",
              "name": "timestamp",
              "type": "uint256"
            }
          ],
          "internalType": "struct JapanPayShop.PayLog[]",
          "name": "",
          "type": "tuple[]"
        }
      ],
      "stateMutability": "view",
      "type": "function"
    },
    {
      "inputs": [],
      "name": "getAllShops",
      "outputs": [
        {
          "components": [
            {
              "internalType": "string",
              "name": "id",
              "type": "string"
            },
            {
              "internalType": "string",
              "name": "name",
              "type": "string"
            },
            {
              "internalType": "string",
              "name": "iconUri",
              "type": "string"
            }
          ],
          "internalType": "struct JapanPayShop.Shop[]",
          "name": "",
          "type": "tuple[]"
        }
      ],
      "stateMutability": "view",
      "type": "function"
    },
    {
      "inputs": [
        {
          "internalType": "string",
          "name": "id",
          "type": "string"
        },
        {
          "internalType": "uint256",
          "name": "amount",
          "type": "uint256"
        }
      ],
      "name": "pay",
      "outputs": [],
      "stateMutability": "nonpayable",
      "type": "function"
    },
    {
      "inputs": [
        {
          "internalType": "address",
          "name": "",
          "type": "address"
        },
        {
          "internalType": "uint256",
          "name": "",
          "type": "uint256"
        }
      ],
      "name": "payLogs",
      "outputs": [
        {
          "internalType": "string",
          "name": "id",
          "type": "string"
        },
        {
          "internalType": "uint256",
          "name": "amount",
          "type": "uint256"
        },
        {
          "internalType": "uint256",
          "name": "amountToPay",
          "type": "uint256"
        },
        {
          "internalType": "uint256",
          "name": "timestamp",
          "type": "uint256"
        }
      ],
      "stateMutability": "view",
      "type": "function"
    },
    {
      "inputs": [
        {
          "internalType": "string",
          "name": "id",
          "type": "string"
        },
        {
          "internalType": "string",
          "name": "name",
          "type": "string"
        },
        {
          "internalType": "string",
          "name": "iconUri",
          "type": "string"
        }
      ],
      "name": "registerShop",
      "outputs": [],
      "stateMutability": "nonpayable",
      "type": "function"
    },
    {
      "inputs": [
        {
          "internalType": "address",
          "name": "token",
          "type": "address"
        }
      ],
      "name": "registerToken",
      "outputs": [],
      "stateMutability": "nonpayable",
      "type": "function"
    },
    {
      "inputs": [
        {
          "internalType": "uint256",
          "name": "",
          "type": "uint256"
        }
      ],
      "name": "shops",
      "outputs": [
        {
          "internalType": "string",
          "name": "id",
          "type": "string"
        },
        {
          "internalType": "string",
          "name": "name",
          "type": "string"
        },
        {
          "internalType": "string",
          "name": "iconUri",
          "type": "string"
        }
      ],
      "stateMutability": "view",
      "type": "function"
    }
  ],
  "bytecode": "0x608060405234801561001057600080fd5b5033600160006101000a81548173ffffffffffffffffffffffffffffffffffffffff021916908373ffffffffffffffffffffffffffffffffffffffff160217905550611b27806100616000396000f3fe608060405234801561001057600080fd5b50600436106100935760003560e01c8063901c595311610066578063901c5953146101375780639d0723d614610153578063a19aca2c14610183578063d5c9b2391461019f578063fd527178146101bd57610093565b806309824a80146100985780635dbca071146100b4578063713aca74146100e7578063791c4ced14610119575b600080fd5b6100b260048036038101906100ad9190610dc0565b6101db565b005b6100ce60048036038101906100c99190610e23565b6102ae565b6040516100de9493929190610f02565b60405180910390f35b61010160048036038101906100fc9190610f4e565b610383565b60405161011093929190610f7b565b60405180910390f35b610121610555565b60405161012e9190610fc7565b60405180910390f35b610151600480360381019061014c9190611047565b61055b565b005b61016d60048036038101906101689190610dc0565b610892565b60405161017a9190611225565b60405180910390f35b61019d60048036038101906101989190611247565b6109e0565b005b6101a7610b3e565b6040516101b4919061141b565b60405180910390f35b6101c5610d53565b6040516101d29190610fc7565b60405180910390f35b600160009054906101000a900473ffffffffffffffffffffffffffffffffffffffff1673ffffffffffffffffffffffffffffffffffffffff163373ffffffffffffffffffffffffffffffffffffffff161461026b576040517f08c379a000000000000000000000000000000000000000000000000000000000815260040161026290611489565b60405180910390fd5b806000806101000a81548173ffffffffffffffffffffffffffffffffffffffff021916908373ffffffffffffffffffffffffffffffffffffffff16021790555050565b600360205281600052604060002081815481106102ca57600080fd5b9060005260206000209060040201600091509150508060000180546102ee906114d8565b80601f016020809104026020016040519081016040528092919081815260200182805461031a906114d8565b80156103675780601f1061033c57610100808354040283529160200191610367565b820191906000526020600020905b81548152906001019060200180831161034a57829003601f168201915b5050505050908060010154908060020154908060030154905084565b6002818154811061039357600080fd5b90600052602060002090600302016000915090508060000180546103b6906114d8565b80601f01602080910402602001604051908101604052809291908181526020018280546103e2906114d8565b801561042f5780601f106104045761010080835404028352916020019161042f565b820191906000526020600020905b81548152906001019060200180831161041257829003601f168201915b505050505090806001018054610444906114d8565b80601f0160208091040260200160405190810160405280929190818152602001828054610470906114d8565b80156104bd5780601f10610492576101008083540402835291602001916104bd565b820191906000526020600020905b8154815290600101906020018083116104a057829003601f168201915b5050505050908060020180546104d2906114d8565b80601f01602080910402602001604051908101604052809291908181526020018280546104fe906114d8565b801561054b5780601f106105205761010080835404028352916020019161054b565b820191906000526020600020905b81548152906001019060200180831161052e57829003601f168201915b5050505050905083565b61138881565b6064811161059e576040517f08c379a000000000000000000000000000000000000000000000000000000000815260040161059590611555565b60405180910390fd5b60008190506000606c6064846105b491906115a4565b6105be9190611615565b90506113888311156105ce578091505b60008060009054906101000a900473ffffffffffffffffffffffffffffffffffffffff169050838173ffffffffffffffffffffffffffffffffffffffff1663dd62ed3e33306040518363ffffffff1660e01b8152600401610630929190611655565b602060405180830381865afa15801561064d573d6000803e3d6000fd5b505050506040513d601f19601f820116820180604052508101906106719190611693565b10156106b2576040517f08c379a00000000000000000000000000000000000000000000000000000000081526004016106a99061170c565b60405180910390fd5b8073ffffffffffffffffffffffffffffffffffffffff166323b872dd3330866040518463ffffffff1660e01b81526004016106ef9392919061172c565b6020604051808303816000875af115801561070e573d6000803e3d6000fd5b505050506040513d601f19601f82011682018060405250810190610732919061179b565b50600360003373ffffffffffffffffffffffffffffffffffffffff1673ffffffffffffffffffffffffffffffffffffffff168152602001908152602001600020604051806080016040528088888080601f016020809104026020016040519081016040528093929190818152602001838380828437600081840152601f19601f820116905080830192505050505050508152602001868152602001858152602001428152509080600181540180825580915050600190039060005260206000209060040201600090919091909150600082015181600001908161081591906119a3565b5060208201518160010155604082015181600201556060820151816003015550503373ffffffffffffffffffffffffffffffffffffffff167fed9100fd7adb878015d88d5ad98753d7d5f7c06506d4ffea0c3c8e535a09c31f878787876040516108829493929190611ab1565b60405180910390a2505050505050565b6060600360008373ffffffffffffffffffffffffffffffffffffffff1673ffffffffffffffffffffffffffffffffffffffff168152602001908152602001600020805480602002602001604051908101604052809291908181526020016000905b828210156109d55783829060005260206000209060040201604051806080016040529081600082018054610926906114d8565b80601f0160208091040260200160405190810160405280929190818152602001828054610952906114d8565b801561099f5780601f106109745761010080835404028352916020019161099f565b820191906000526020600020905b81548152906001019060200180831161098257829003601f168201915b505050505081526020016001820154815260200160028201548152602001600382015481525050815260200190600101906108f3565b505050509050919050565b6002604051806060016040528088888080601f016020809104026020016040519081016040528093929190818152602001838380828437600081840152601f19601f82011690508083019250505050505050815260200186868080601f016020809104026020016040519081016040528093929190818152602001838380828437600081840152601f19601f82011690508083019250505050505050815260200184848080601f016020809104026020016040519081016040528093929190818152602001838380828437600081840152601f19601f8201169050808301925050505050505081525090806001815401808255809150506001900390600052602060002090600302016000909190919091506000820151816000019081610b0791906119a3565b506020820151816001019081610b1d91906119a3565b506040820151816002019081610b3391906119a3565b505050505050505050565b60606002805480602002602001604051908101604052809291908181526020016000905b82821015610d4a5783829060005260206000209060030201604051806060016040529081600082018054610b95906114d8565b80601f0160208091040260200160405190810160405280929190818152602001828054610bc1906114d8565b8015610c0e5780601f10610be357610100808354040283529160200191610c0e565b820191906000526020600020905b815481529060010190602001808311610bf157829003601f168201915b50505050508152602001600182018054610c27906114d8565b80601f0160208091040260200160405190810160405280929190818152602001828054610c53906114d8565b8015610ca05780601f10610c7557610100808354040283529160200191610ca0565b820191906000526020600020905b815481529060010190602001808311610c8357829003601f168201915b50505050508152602001600282018054610cb9906114d8565b80601f0160208091040260200160405190810160405280929190818152602001828054610ce5906114d8565b8015610d325780601f10610d0757610100808354040283529160200191610d32565b820191906000526020600020905b815481529060010190602001808311610d1557829003601f168201915b50505050508152505081526020019060010190610b62565b50505050905090565b606481565b600080fd5b600080fd5b600073ffffffffffffffffffffffffffffffffffffffff82169050919050565b6000610d8d82610d62565b9050919050565b610d9d81610d82565b8114610da857600080fd5b50565b600081359050610dba81610d94565b92915050565b600060208284031215610dd657610dd5610d58565b5b6000610de484828501610dab565b91505092915050565b6000819050919050565b610e0081610ded565b8114610e0b57600080fd5b50565b600081359050610e1d81610df7565b92915050565b60008060408385031215610e3a57610e39610d58565b5b6000610e4885828601610dab565b9250506020610e5985828601610e0e565b9150509250929050565b600081519050919050565b600082825260208201905092915050565b60005b83811015610e9d578082015181840152602081019050610e82565b60008484015250505050565b6000601f19601f8301169050919050565b6000610ec582610e63565b610ecf8185610e6e565b9350610edf818560208601610e7f565b610ee881610ea9565b840191505092915050565b610efc81610ded565b82525050565b60006080820190508181036000830152610f1c8187610eba565b9050610f2b6020830186610ef3565b610f386040830185610ef3565b610f456060830184610ef3565b95945050505050565b600060208284031215610f6457610f63610d58565b5b6000610f7284828501610e0e565b91505092915050565b60006060820190508181036000830152610f958186610eba565b90508181036020830152610fa98185610eba565b90508181036040830152610fbd8184610eba565b9050949350505050565b6000602082019050610fdc6000830184610ef3565b92915050565b600080fd5b600080fd5b600080fd5b60008083601f84011261100757611006610fe2565b5b8235905067ffffffffffffffff81111561102457611023610fe7565b5b6020830191508360018202830111156110405761103f610fec565b5b9250929050565b6000806000604084860312156110605761105f610d58565b5b600084013567ffffffffffffffff81111561107e5761107d610d5d565b5b61108a86828701610ff1565b9350935050602061109d86828701610e0e565b9150509250925092565b600081519050919050565b600082825260208201905092915050565b6000819050602082019050919050565b600082825260208201905092915050565b60006110ef82610e63565b6110f981856110d3565b9350611109818560208601610e7f565b61111281610ea9565b840191505092915050565b61112681610ded565b82525050565b6000608083016000830151848203600086015261114982826110e4565b915050602083015161115e602086018261111d565b506040830151611171604086018261111d565b506060830151611184606086018261111d565b508091505092915050565b600061119b838361112c565b905092915050565b6000602082019050919050565b60006111bb826110a7565b6111c581856110b2565b9350836020820285016111d7856110c3565b8060005b8581101561121357848403895281516111f4858261118f565b94506111ff836111a3565b925060208a019950506001810190506111db565b50829750879550505050505092915050565b6000602082019050818103600083015261123f81846111b0565b905092915050565b6000806000806000806060878903121561126457611263610d58565b5b600087013567ffffffffffffffff81111561128257611281610d5d565b5b61128e89828a01610ff1565b9650965050602087013567ffffffffffffffff8111156112b1576112b0610d5d565b5b6112bd89828a01610ff1565b9450945050604087013567ffffffffffffffff8111156112e0576112df610d5d565b5b6112ec89828a01610ff1565b92509250509295509295509295565b600081519050919050565b600082825260208201905092915050565b6000819050602082019050919050565b6000606083016000830151848203600086015261134482826110e4565b9150506020830151848203602086015261135e82826110e4565b9150506040830151848203604086015261137882826110e4565b9150508091505092915050565b60006113918383611327565b905092915050565b6000602082019050919050565b60006113b1826112fb565b6113bb8185611306565b9350836020820285016113cd85611317565b8060005b8581101561140957848403895281516113ea8582611385565b94506113f583611399565b925060208a019950506001810190506113d1565b50829750879550505050505092915050565b6000602082019050818103600083015261143581846113a6565b905092915050565b7f6e6f74206f776e65720000000000000000000000000000000000000000000000600082015250565b6000611473600983610e6e565b915061147e8261143d565b602082019050919050565b600060208201905081810360008301526114a281611466565b9050919050565b7f4e487b7100000000000000000000000000000000000000000000000000000000600052602260045260246000fd5b600060028204905060018216806114f057607f821691505b602082108103611503576115026114a9565b5b50919050565b7f7061796d656e742069732062656c6f77206d696e20616d6f756e740000000000600082015250565b600061153f601b83610e6e565b915061154a82611509565b602082019050919050565b6000602082019050818103600083015261156e81611532565b9050919050565b7f4e487b7100000000000000000000000000000000000000000000000000000000600052601160045260246000fd5b60006115af82610ded565b91506115ba83610ded565b92508282026115c881610ded565b915082820484148315176115df576115de611575565b5b5092915050565b7f4e487b7100000000000000000000000000000000000000000000000000000000600052601260045260246000fd5b600061162082610ded565b915061162b83610ded565b92508261163b5761163a6115e6565b5b828204905092915050565b61164f81610d82565b82525050565b600060408201905061166a6000830185611646565b6116776020830184611646565b9392505050565b60008151905061168d81610df7565b92915050565b6000602082840312156116a9576116a8610d58565b5b60006116b78482850161167e565b91505092915050565b7f546f6b656e20616c6c6f77616e636520746f6f206c6f77000000000000000000600082015250565b60006116f6601783610e6e565b9150611701826116c0565b602082019050919050565b60006020820190508181036000830152611725816116e9565b9050919050565b60006060820190506117416000830186611646565b61174e6020830185611646565b61175b6040830184610ef3565b949350505050565b60008115159050919050565b61177881611763565b811461178357600080fd5b50565b6000815190506117958161176f565b92915050565b6000602082840312156117b1576117b0610d58565b5b60006117bf84828501611786565b91505092915050565b7f4e487b7100000000000000000000000000000000000000000000000000000000600052604160045260246000fd5b60008190508160005260206000209050919050565b60006020601f8301049050919050565b600082821b905092915050565b6000600883026118597fffffffffffffffffffffffffffffffffffffffffffffffffffffffffffffffff8261181c565b611863868361181c565b95508019841693508086168417925050509392505050565b6000819050919050565b60006118a061189b61189684610ded565b61187b565b610ded565b9050919050565b6000819050919050565b6118ba83611885565b6118ce6118c6826118a7565b848454611829565b825550505050565b600090565b6118e36118d6565b6118ee8184846118b1565b505050565b5b81811015611912576119076000826118db565b6001810190506118f4565b5050565b601f82111561195757611928816117f7565b6119318461180c565b81016020851015611940578190505b61195461194c8561180c565b8301826118f3565b50505b505050565b600082821c905092915050565b600061197a6000198460080261195c565b1980831691505092915050565b60006119938383611969565b9150826002028217905092915050565b6119ac82610e63565b67ffffffffffffffff8111156119c5576119c46117c8565b5b6119cf82546114d8565b6119da828285611916565b600060209050601f831160018114611a0d57600084156119fb578287015190505b611a058582611987565b865550611a6d565b601f198416611a1b866117f7565b60005b82811015611a4357848901518255600182019150602085019450602081019050611a1e565b86831015611a605784890151611a5c601f891682611969565b8355505b6001600288020188555050505b505050505050565b82818337600083830152505050565b6000611a908385610e6e565b9350611a9d838584611a75565b611aa683610ea9565b840190509392505050565b60006060820190508181036000830152611acc818688611a84565b9050611adb6020830185610ef3565b611ae86040830184610ef3565b9594505050505056fea26469706673582212200964ed5e7acbf5a012cdb0fadf200ad2dc7d11a6f5c1c1de273720df1e8a096564736f6c63430008180033",
  "linkReferences": {},
  "deployedLinkReferences": {}
}